:020000040800F2
:100000000050002049640008415C0008435C00087F
:10001000455C0008475C0008495C000800000000DF
:10002000000000000000000000000000E14800089F
:100030004B5C00080000000081490008C549000829
:1000400091640008916400089164000891640008BC
:1000500091640008916400089164000891640008AC
:10006000916400089164000891640008916400089C
:10007000916400089164000891640008916400088C
:10008000916400089164000891640008916400087C
:100090009164000891640008916400084D5C0008B8
:1000A000916400089164000891640008916400085C
:1000B0009164000891640008595C0008916400088C
:1000C000916400089164000891640008916400083C
:1000D00091640008695C000891640008916400085C
:1000E000795C000891640008916400080000000039
:1000F0000000000000000000000000000000000000
:0C01000000000000000000005FF808F1A3
:1001100010B5054C237833B9044B13B10448AFF341
:1001200000800123237010BDE001002000000000CA
:10013000DC92000808B5034B1BB103490348AFF339
:10014000008008BD00000000E4010020DC920008EF
:10015000034613F8012B002AFBD1181A0138704707
:1001600081F0004102E000BF83F0004330B54FEA68
:1001700041044FEA430594EA050F08BF90EA020FD5
:100180001FBF54EA000C55EA020C7FEA645C7FEA68
:10019000655C00F0E2804FEA5454D4EB5555B8BF8B
:1001A0006D420CDD2C4480EA020281EA030382EAFC
:1001B000000083EA010180EA020281EA0303362D8E
:1001C00088BF30BD11F0004F4FEA01314FF4801C61
:1001D0004CEA113102D0404261EB410113F0004F73
:1001E0004FEA03334CEA133302D0524263EB43032A
:1001F00094EA050F00F0A780A4F10104D5F1200EC8
:100200000DDB02FA0EFC22FA05F2801841F1000122
:1002100003FA0EF2801843FA05F359410EE0A5F1F6
:1002200020050EF1200E012A03FA0EFC28BF4CF027
:10023000020C43FA05F3C01851EBE37101F00045DD
:1002400007D54FF0000EDCF1000C7EEB00006EEBEA
:100250000101B1F5801F1BD3B1F5001F0CD3490874
:100260005FEA30004FEA3C0C04F101044FEA4452CB
:1002700012F5800F80F09A80BCF1004F08BF5FEA52
:10028000500C50F1000041EB045141EA050130BD32
:100290005FEA4C0C404141EB0101013C28BFB1F544
:1002A000801FE9D291F0000F04BF01460020B1FA8F
:1002B00081F308BF2033A3F10B03B3F120020CDA62
:1002C0000C3208DD02F1140CC2F10C0201FA0CF040
:1002D00021FA02F10CE002F11402D8BFC2F1200CA5
:1002E00001FA02F120FA0CFCDCBF41EA0C0190405B
:1002F000E41AA2BF01EB0451294330BD6FEA0404A4
:100300001F3C1CDA0C340EDC04F11404C4F120028E
:1003100020FA04F001FA02F340EA030021FA04F3A0
:1003200045EA030130BDC4F10C04C4F1200220FAF7
:1003300002F001FA04F340EA0300294630BD21FA35
:1003400004F0294630BD94F0000F83F4801306BFFB
:1003500081F480110134013D4EE77FEA645C18BFEF
:100360007FEA655C29D094EA050F08BF90EA020F86
:1003700005D054EA000C04BF1946104630BD91EA7E
:10038000030F1EBF0021002030BD5FEA545C05D181
:100390004000494128BF41F0004130BD14F58004C0
:1003A0003CBF01F5801130BD01F0004545F0FE4134
:1003B00041F470014FF0000030BD7FEA645C1ABF69
:1003C000194610467FEA655C1CBF0B46024650EAA0
:1003D000013406BF52EA033591EA030F41F40021CC
:1003E00030BD00BF90F0000F04BF0021704730B552
:1003F0004FF4806404F132044FF000054FF0000127
:1004000050E700BF90F0000F04BF0021704730B5E7
:100410004FF4806404F1320410F0004548BF4042BC
:100420004FF000013EE700BF42004FEAE2014FEA11
:1004300031014FEA02701FBF12F07F4393F07F4FEC
:1004400081F06051704732F07F4208BF704793F0EF
:100450007F4F04BF41F40021704730B54FF4607402
:1004600001F0004521F000411CE700BF50EA010205
:1004700008BF704730B54FF000050AE050EA0102AE
:1004800008BF704730B511F0004502D5404261EB1E
:1004900041014FF4806404F132045FEA915C3FF45F
:1004A000D8AE4FF003025FEADC0C18BF03325FEAFC
:1004B000DC0C18BF033202EBDC02C2F1200300FAAD
:1004C00003FC20FA02F001FA03FE40EA0E0021FAD2
:1004D00002F11444BDE600BF70B54FF0FF0C4CF4C0
:1004E000E06C1CEA11541DBF1CEA135594EA0C0F72
:1004F00095EA0C0F00F0DEF82C4481EA030621EAAD
:100500004C5123EA4C5350EA013518BF52EA0335E7
:1005100041F4801143F4801338D0A0FB02CE4FF099
:100520000005E1FB02E506F00042E0FB03E54FF0C9
:100530000006E1FB03569CF0000F18BF4EF0010EC1
:10054000A4F1FF04B6F5007F64F5407404D25FEABD
:100550004E0E6D4146EB060642EAC62141EA555170
:100560004FEAC52040EA5E504FEACE2EB4F1FD0CB2
:1005700088BFBCF5E06F1ED8BEF1004F08BF5FEA30
:10058000500E50F1000041EB045170BD06F00046E2
:1005900046EA010140EA020081EA0301B4EB5C048F
:1005A000C2BFD4EB0C0541EA045170BD41F4801187
:1005B0004FF0000E013C00F3AB8014F1360FDEBFAC
:1005C000002001F0004170BDC4F10004203C35DA88
:1005D0000C341BDC04F11404C4F1200500FA05F30B
:1005E00020FA04F001FA05F240EA020001F00042AC
:1005F00021F0004110EBD37021FA04F642EB060122
:100600005EEA430E08BF20EAD37070BDC4F10C044B
:10061000C4F1200500FA04F320FA05F001FA04F20F
:1006200040EA020001F0004110EBD37041F10001FB
:100630005EEA430E08BF20EAD37070BDC4F1200506
:1006400000FA05F24EEA020E20FA04F301FA05F26E
:1006500043EA020321FA04F001F0004121FA04F216
:1006600020EA020000EBD3705EEA430E08BF20EAE6
:10067000D37070BD94F0000F0FD101F00046400020
:1006800041EB010111F4801F08BF013CF7D041EAA2
:10069000060195F0000F18BF704703F000465200A6
:1006A00043EB030313F4801F08BF013DF7D043EA77
:1006B0000603704794EA0C0F0CEA135518BF95EA2D
:1006C0000C0F0CD050EA410618BF52EA4306D1D1B4
:1006D00081EA030101F000414FF0000070BD50EAD3
:1006E000410606BF1046194652EA430619D094EA5D
:1006F0000C0F02D150EA013613D195EA0C0F05D147
:1007000052EA03361CBF104619460AD181EA03019A
:1007100001F0004141F0FE4141F470014FF0000052
:1007200070BD41F0FE4141F4780170BD70B54FF0ED
:10073000FF0C4CF4E06C1CEA11541DBF1CEA13556D
:1007400094EA0C0F95EA0C0F00F0A7F8A4EB05044F
:1007500081EA030E52EA03354FEA013100F0888046
:100760004FEA03334FF0805545EA131343EA12630F
:100770004FEA022245EA111545EA10654FEA0026C4
:100780000EF000419D4208BF964244F1FD0404F57D
:10079000407402D25B084FEA3202B61A65EB0305D9
:1007A0005B084FEA32024FF480104FF4002CB6EB96
:1007B000020E75EB030E22BFB61A754640EA0C0016
:1007C0005B084FEA3202B6EB020E75EB030E22BF56
:1007D000B61A754640EA5C005B084FEA3202B6EB97
:1007E000020E75EB030E22BFB61A754640EA9C0056
:1007F0005B084FEA3202B6EB020E75EB030E22BF26
:10080000B61A754640EADC0055EA060E18D04FEAE3
:10081000051545EA16754FEA06164FEAC30343EA83
:1008200052734FEAC2025FEA1C1CC0D111F4801F50
:100830000BD141EA00014FF000004FF0004CB6E749
:1008400011F4801F04BF01430020B4F1FD0C88BFE8
:10085000BCF5E06F3FF6AFAEB5EB030C04BFB6EBF3
:10086000020C5FEA500C50F1000041EB045170BDE6
:100870000EF0004E4EEA113114EB5C04C2BFD4EB13
:100880000C0541EA045170BD41F480114FF0000E97
:10089000013C90E645EA060E8DE60CEA135594EA13
:1008A0000C0F08BF95EA0C0F3FF43BAF94EA0C0F16
:1008B0000AD150EA01347FF434AF95EA0C0F7FF48B
:1008C00025AF104619462CE795EA0C0F06D152EADF
:1008D00003353FF4FDAE1046194622E750EA4106C3
:1008E00018BF52EA43067FF4C5AE50EA41047FF4D4
:1008F0000DAF52EA43057FF4EBAE12E74FF0FF3C39
:1009000006E000BF4FF0010C02E000BF4FF0010C09
:100910004DF804CD4FEA410C7FEA6C5C4FEA430C82
:1009200018BF7FEA6C5C1BD001B050EA410C0CBFD1
:1009300052EA430C91EA030F02BF90EA020F002033
:10094000704710F1000F91EA030F58BF994208BF9A
:1009500090422CBFD8176FEAE37040F00100704757
:100960004FEA410C7FEA6C5C02D150EA013C07D1AE
:100970004FEA430C7FEA6C5CD6D152EA033CD3D0F9
:100980005DF8040B704700BF8446104662468C46F3
:100990001946634600E000BF01B5FFF7B7FF002826
:1009A00048BF10F1000F01BD4DF808EDFFF7F4FF4F
:1009B0000CBF012000205DF808FB00BF4DF808EDDA
:1009C000FFF7EAFF34BF012000205DF808FB00BFFD
:1009D0004DF808EDFFF7E0FF94BF012000205DF81F
:1009E00008FB00BF4DF808EDFFF7CEFF94BF0120D4
:1009F00000205DF808FB00BF4DF808EDFFF7C4FFCD
:100A000034BF012000205DF808FB00BF4FEA410C15
:100A10007FEA6C5C02D150EA013C0AD14FEA430CF8
:100A20007FEA6C5C02D152EA033C02D14FF0000035
:100A300070474FF0010070474FEA410212F5001273
:100A400015D211D56FF47873B3EB625212D94FEA15
:100A5000C12343F0004343EA505311F0004F23FAFF
:100A600002F018BF404270474FF00000704750EA54
:100A7000013005D111F0004008BF6FF00040704711
:100A80004FF00000704700BF80F0004002E000BF60
:100A900081F0004142001FBF5FEA410392EA030F69
:100AA0007FEA226C7FEA236C6AD04FEA1262D2EBB3
:100AB0001363C1BFD218414048404140B8BF5B42B8
:100AC000192B88BF704710F0004F40F4000020F051
:100AD0007F4018BF404211F0004F41F4000121F067
:100AE0007F4118BF494292EA030F3FD0A2F10102B1
:100AF00041FA03FC10EB0C00C3F1200301FA03F1EF
:100B000000F0004302D5494260EB4000B0F5000F11
:100B100013D3B0F1807F06D340084FEA310102F1D0
:100B20000102FE2A51D2B1F1004F40EBC25008BF82
:100B300020F0010040EA03007047490040EB00004C
:100B4000013A28BFB0F5000FEDD2B0FA80FCACF14D
:100B5000080CB2EB0C0200FA0CF0AABF00EBC2507A
:100B600052421843BCBFD0401843704792F0000F68
:100B700081F4000106BF80F400000132013BB5E7BB
:100B80004FEA41037FEA226C18BF7FEA236C21D031
:100B900092EA030F04D092F0000F08BF0846704796
:100BA00090EA010F1CBF0020704712F07F4F04D164
:100BB000400028BF40F00040704712F100723CBF77
:100BC00000F50000704700F0004343F0FE4040F4A1
:100BD000000070477FEA226216BF08467FEA23635F
:100BE0000146420206BF5FEA412390EA010F40F44A
:100BF000800070474FF0000304E000BF10F0004396
:100C000048BF40425FEA000C08BF704743F096437C
:100C100001464FF000001CE050EA010208BF704797
:100C20004FF000030AE000BF50EA010208BF70471E
:100C300011F0004302D5404261EB41015FEA010C33
:100C400002BF84460146002043F0B64308BFA3F12B
:100C50008053A3F50003BCFA8CF2083AA3EBC2530D
:100C600010DB01FA02FC634400FA02FCC2F120022C
:100C7000BCF1004F20FA02F243EB020008BF20F063
:100C80000100704702F1200201FA02FCC2F12002C9
:100C900050EA4C0021FA02F243EB020008BF20EABE
:100CA000DC7070474FF0FF0C1CEAD0521EBF1CEAEC
:100CB000D15392EA0C0F93EA0C0F6FD01A4480EADA
:100CC000010C400218BF5FEA41211ED04FF00063C3
:100CD00043EA501043EA5111A0FB01310CF00040EF
:100CE000B1F5000F3EBF490041EAD3715B0040EA15
:100CF000010062F17F02FD2A1DD8B3F1004F40EBE5
:100D0000C25008BF20F00100704790F0000F0CF0B7
:100D1000004C08BF49024CEA502040EA51207F3A7B
:100D2000C2BFD2F1FF0340EAC250704740F4000056
:100D30004FF00003013A5DDC12F1190FDCBF00F047
:100D400000407047C2F10002410021FA02F1C2F1F5
:100D5000200200FA02FC5FEA310040F1000053EA91
:100D60004C0308BF20EADC70704792F0000F00F0DF
:100D7000004C02BF400010F4000F013AF9D040EAE5
:100D80000C0093F0000F01F0004C02BF490011F479
:100D9000000F013BF9D041EA0C018FE70CEAD15377
:100DA00092EA0C0F18BF93EA0C0F0AD030F0004CF7
:100DB00018BF31F0004CD8D180EA010000F00040AB
:100DC000704790F0000F17BF90F0004F084691F069
:100DD000000F91F0004F14D092EA0C0F01D14202A3
:100DE0000FD193EA0C0F03D14B0218BF084608D16C
:100DF00080EA010000F0004040F0FE4040F40000B6
:100E0000704740F0FE4040F4400070474FF0FF0C48
:100E10001CEAD0521EBF1CEAD15392EA0C0F93EA8F
:100E20000C0F69D0A2EB030280EA010C49024FEAE1
:100E3000402037D04FF0805343EA111143EA10139A
:100E40000CF000408B4238BF5B0042F17D024FF452
:100E5000000C8B4224BF5B1A40EA0C00B3EB510F2D
:100E600024BFA3EB510340EA5C00B3EB910F24BF16
:100E7000A3EB910340EA9C00B3EBD10F24BFA3EB9B
:100E8000D10340EADC001B0118BF5FEA1C1CE0D163
:100E9000FD2A3FF650AF8B4240EBC25008BF20F016
:100EA000010070470CF0004C4CEA50207F32C2BF6A
:100EB000D2F1FF0340EAC250704740F400004FF007
:100EC0000003013A37E792F0000F00F0004C02BF38
:100ED000400010F4000F013AF9D040EA0C0093F002
:100EE000000F01F0004C02BF490011F4000F013B5C
:100EF000F9D041EA0C0195E70CEAD15392EA0C0FC4
:100F000008D142027FF47DAF93EA0C0F7FF470AFFB
:100F1000084676E793EA0C0F04D14B023FF44CAF3E
:100F200008466EE730F0004C18BF31F0004CCAD1D3
:100F300030F000427FF45CAF31F000437FF43CAF0F
:100F40005FE700BF4FF0FF3C06E000BF4FF0010C31
:100F500002E000BF4FF0010C4DF804CD4FEA400213
:100F60004FEA41037FEA226C18BF7FEA236C11D05D
:100F700001B052EA530C18BF90EA010F58BFB2EB10
:100F8000030088BFC81738BF6FEAE17018BF40F090
:100F9000010070477FEA226C02D15FEA402C05D144
:100FA0007FEA236CE4D15FEA412CE1D05DF8040BC9
:100FB000704700BF844608466146FFE70FB5FFF75C
:100FC000C9FF002848BF10F1000F0FBD4DF808ED14
:100FD000FFF7F4FF0CBF012000205DF808FB00BF05
:100FE0004DF808EDFFF7EAFF34BF012000205DF85F
:100FF00008FB00BF4DF808EDFFF7E0FF94BF0120AC
:1010000000205DF808FB00BF4DF808EDFFF7D2FFA8
:1010100094BF012000205DF808FB00BF4DF808EDEB
:10102000FFF7C8FF34BF012000205DF808FB00BFB8
:101030004FEA4002B2F1FE4F0FD34FF09E03B3EBE5
:1010400012620DD94FEA002343F0004310F0004F25
:1010500023FA02F018BF404270474FF0000070477B
:1010600012F1610F01D1420205D110F0004008BF1A
:101070006FF0004070474FF00000704742000ED202
:10108000B2F1FE4F0BD34FF09E03B3EB126209D4C3
:101090004FEA002343F0004323FA02F070474FF079
:1010A0000000704712F1610F01D1420202D14FF0EE
:1010B000FF3070474FF00000704700BF08B5074A87
:1010C000136843F010031360032000F0FBFC0F20B3
:1010D00004F0E0FD05F086F8002008BD0020024085
:1010E000034A1168034B1B780B441360704700BF21
:1010F000FC01002000000020014B1868704700BF71
:10110000FC01002082B0084B1B68084AA2FB0323A5
:101110005B0A00FB03F3019300BF019B5A1E01927F
:10112000002BF9D102B070470C000020D34D6210A3
:10113000002800F0F18170B582B00446036813F016
:10114000010F2CD0994B5B6803F00C03042B1DD0CE
:10115000964B5B6803F00C03082B12D06368B3F561
:10116000803F41D0002B55D103F1804303F5043378
:101170001A6822F480321A601A6822F480221A60F7
:1011800037E08A4B5B6813F4803FE7D0874B1B68DE
:1011900013F4003F03D06368002B00F0BF81236885
:1011A00013F0020F75D0814B5B6813F00C0F5FD00A
:1011B0007E4B5B6803F00C03082B54D02369002B93
:1011C00000F08A807A4B01221A60FFF795FF0546EE
:1011D000764B1B6813F0020F75D1FFF78DFF401B94
:1011E0000228F5D903209EE1704A136843F4803346
:1011F0001360636843B3FFF77FFF05466B4B1B68C3
:1012000013F4003FCBD1FFF777FF401B6428F5D9DB
:10121000032088E1B3F5A02F09D0644B1A6822F4AB
:1012200080321A601A6822F480221A60E1E703F122
:101230008043A3F53C331A6842F480221A601A688E
:1012400042F480321A60D4E7FFF756FF0546574B49
:101250001B6813F4003FA2D0FFF74EFF401B642829
:10126000F5D903205FE1514B5B6813F4803FA5D1B2
:101270004E4B1B6813F0020F03D02369012B40F083
:101280004F814A4A136823F0F803616943EAC103B6
:101290001360236813F0080F33D0A369002B5CD0D0
:1012A000434B0122C3F88024FFF726FF05463F4B3E
:1012B0005B6A13F0020F21D1FFF71EFF401B0228CB
:1012C000F5D903202FE1394A136823F0F803616947
:1012D00043EAC1031360DCE7354B00221A60FFF7D5
:1012E0000BFF0546314B1B6813F0020FD1D0FFF7FF
:1012F00003FF401B0228F5D9032014E10120FFF76A
:1013000001FF236813F0040F00F09680274BDB6980
:1013100013F0805F34D1254BDA6942F08052DA61F4
:10132000DB6903F080530193019B0125214B1B686E
:1013300013F4807F26D0E368012B3DD0002B53D1DE
:1013400003F1804303F504331A6A22F001021A62A2
:101350001A6A22F004021A6233E0154B0022C3F825
:101360008024FFF7C9FE0546104B5B6A13F0020F9D
:10137000C7D0FFF7C1FE401B0228F5D90320D2E0F9
:101380000025D3E70B4A136843F480731360FFF71B
:10139000B3FE0646074B1B6813F4807FCBD1FFF7E3
:1013A000ABFE801B6428F5D90320BCE0001002408E
:1013B00000004242007000405F4A136A43F001039C
:1013C0001362E36833B3FFF797FE06465A4B1B6A76
:1013D00013F0020F2FD1FFF78FFE801B41F28833ED
:1013E0009842F3D903209EE0052B09D0524B1A6A8C
:1013F00022F001021A621A6A22F004021A62E0E77D
:101400004D4B1A6A42F004021A621A6A42F0010253
:101410001A62D6E7FFF770FE0646474B1B6A13F0C9
:10142000020F08D0FFF768FE801B41F28833984214
:10143000F3D9032077E0E5B9E369002B72D03E4A87
:10144000526802F00C02082A56D0022B17D03B4BF0
:1014500000221A66FFF750FE0446374B1B6813F054
:10146000007F47D0FFF748FE001B0228F5D9032074
:1014700059E0314AD36923F08053D361DCE72F4B25
:1014800000221A66FFF738FE05462B4B1B6813F047
:10149000007F06D0FFF730FE401B0228F5D903205D
:1014A00041E0236AB3F5803F1AD023494B6823F407
:1014B0007413226A606A024313434B601F4B01227C
:1014C0001A66FFF719FE04461B4B1B6813F0007FDA
:1014D0000ED1FFF711FE001B0228F5D9032022E0F0
:1014E000154A536823F40033A1680B435360DCE7CB
:1014F000002018E0002016E0012B16D00E4B5B6890
:1015000003F48031226A914211D103F47013626AAC
:1015100093420ED1002006E001207047012002E036
:10152000012000E0002002B070BD0120FBE7012097
:10153000F9E70120F7E700BF001002400000424237
:101540000F4B5B6803F00C02082A01D00D4870476E
:10155000C3F383420C49885C13F4803F0BD0084BE3
:101560005B68C3F34043094AD35C064A02FB00F0C0
:10157000B0FBF3F07047064B03FB00F0704700BF71
:101580000010024000127A00F89200080893000848
:1015900000093D00002800F0A08070B50D4604460B
:1015A000524B1B6803F007038B420BD24F4A136860
:1015B00023F007030B431360136803F007038B4208
:1015C00040F08D80236813F0020F17D013F0040F42
:1015D00004D0474A536843F4E0635360236813F030
:1015E000080F04D0424A536843F460535360404AA2
:1015F000536823F0F003A1680B435360236813F092
:10160000010F31D06368012B20D0022B25D0384A3E
:10161000126812F0020F64D035494A6822F00302C2
:1016200013434B60FFF768FD0646314B5B6803F0E0
:101630000C036268B3EB820F16D0FFF75DFD801BD1
:1016400041F288339842F0D9032045E0284A1268D5
:1016500012F4003FE0D101203EE0254A126812F06A
:10166000007FD9D1012037E0204B1B6803F007032E
:10167000AB420AD91D4A136823F007032B431360BA
:10168000136803F00703AB422DD1236813F0040F56
:1016900006D0174A536823F4E063E1680B435360B4
:1016A000236813F0080F07D0114A536823F46053DE
:1016B000216943EAC1035360FFF742FF0C4B5B68AB
:1016C000C3F303130B4AD35CD8400B4B18600B4B8E
:1016D000186804F0DFFA002070BD01207047012077
:1016E000FAE70120F8E70120F6E700BF00200240FA
:1016F000001002408C9500080C000020040000201F
:10170000014B1868704700BF0C00002008B5FFF7B8
:10171000F7FF044B5B68C3F30223034AD35CD84052
:1017200008BD00BF001002409C95000808B5FFF7F7
:10173000E7FF044B5B68C3F3C223034AD35CD84082
:1017400008BD00BF001002409C9500080F230360F5
:101750000B4B5A6802F0030242605A6802F0F00232
:1017600082605A6802F4E062C2605B68DB0803F4DE
:10177000E0630361034B1B6803F007030B607047D2
:10178000001002400020024070B582B00024A44640
:10179000A6E0804DAA4210D007D97F4DAA420CD0B6
:1017A00005F58035AA4208D013E0A5F58015AA42B8
:1017B00003D005F57025AA4207D18A68002A58D0BF
:1017C000012A51D04361082403E0A5F58015AA42FF
:1017D000F3D0BEF1FF0F4ED80646BEF1FF0F4CD836
:1017E0004FEA8C0233680F25954023EA050304FA7B
:1017F00002F2134333604B6813F0805F6ED0674B87
:101800009A6942F001029A619B6903F00103019316
:10181000019B4FEA9C02951C614B53F825600CF02C
:1018200003039D000F23AB4026EA03065D4B98425D
:1018300029D003F58063984200F08E8003F5806321
:10184000984200F08B8003F58063984219D00423FE
:101850001AE0CC68BDE7CC680434BAE7CC68083439
:10186000B7E7CC680C34B4E703610824B1E700247F
:10187000AFE70424ADE7061DAFE7ACF10802920024
:10188000B0E7032300E00023AB4033430232444D72
:1018900045F822304B6813F4801F61D0424A9368A8
:1018A00043EA0E0393604B6813F4001F5ED03E4A78
:1018B000D36843EA0E03D3604B6813F4003F5BD058
:1018C000394A536843EA0E0353604B6813F4803F70
:1018D00058D0354A136843EA0E0313600CF1010C2B
:1018E0000A6832FA0CF353D0012303FA0CF302EA2C
:1018F000030E33EA0202F1D14A68122A3FF649AFD9
:10190000122A3FF666AF01A555F822F0BB17000872
:10191000531800085D1800086F180008D317000856
:10192000D3170008D3170008D3170008D3170008EF
:10193000D3170008D3170008D3170008D3170008DF
:10194000D3170008D3170008D3170008D3170008CF
:101950005718000863180008012395E7022393E74E
:10196000114A936823EA0E0393609CE70E4AD368FA
:1019700023EA0E03D3609FE70B4A536823EA0E0362
:101980005360A2E7084A136823EA0E031360A5E731
:1019900002B070BD000022100000311000100240A3
:1019A0000000014000080140000401408368194222
:1019B00001D001207047002070470AB101617047D3
:1019C000090401617047000008B5054B5B690342DB
:1019D00000D108BD024B586104F066F8F9E700BF7A
:1019E0000004014090F82130DBB2022B06D0042322
:1019F0008363002380F82030012070470268136859
:101A000023F00E0313600268136823F001031360D0
:101A1000036CC16B012202FA03F34B6080F82120B2
:101A2000002380F8203018467047000008B590F871
:101A30002130DBB2022B03D004238363012008BDD5
:101A40000268136823F00E0313600268136823F022
:101A5000010313600368194A934214D0143293426D
:101A60001FD0143293421ED0143293421ED014322F
:101A700093421ED01432934202D04FF0807203E0A2
:101A80004FF4801200E001220D4B5A60012380F8D0
:101A90002130002380F82030436B6BB19847002041
:101AA000CDE71022F0E74FF48072EDE74FF480525B
:101AB000EAE74FF48032E7E70020C0E70800024081
:101AC00000000240074AD36823F4E0631B041B0CA8
:101AD000000200F4E060034343F0BF6343F40033CB
:101AE000D360704700ED00E000B5194BDB68C3F32D
:101AF0000223C3F1070CBCF1040F28BF4FF0040C04
:101B000003F1040EBEF1060F18D9033B4FF0FF3E60
:101B10000EFA0CFC21EA0C0199400EFA03F322EABA
:101B20000303194300280BDB0901C9B200F160402F
:101B300000F5614080F800135DF804FB0023E5E741
:101B400000F00F000901C9B2024B1954F4E700BFBD
:101B500000ED00E014ED00E0002807DB00F01F02BC
:101B6000400901239340024A42F82030704700BFE9
:101B700000E100E070B4036A026A22F0010202622E
:101B80004668826922F073020C6844EA020523F079
:101B900002028B6813430D4CA04209D00B4CA042AB
:101BA0000DD0466085614A684263036270BC70472D
:101BB00023F00803CA68134323F00403EEE726F476
:101BC00040764A6932438E691643EAE7002C0140A9
:101BD00030B4036A026A22F4807202624568C26904
:101BE00022F073020C68224323F400738C6843EAEA
:101BF00004230F4CA04209D00D4CA0420ED04560EA
:101C0000C2614A68C263036230BC704723F4006358
:101C1000CC6843EA042323F48063EDE725F44055C0
:101C20004C6945EA04158C6945EA0415E7E700BFED
:101C3000002C014030B4036A026A22F4805202622E
:101C40004468C26922F4E6420D6842EA052223F4A0
:101C500000538D6843EA0533074DA84206D044601F
:101C6000C2614A680264036230BC704724F4804455
:101C70004D6944EA8514F2E7002C014070470000EA
:101C800090F83D30DBB2012B27D1022380F83D30A4
:101C90000268D36843F00103D3600368114A93429A
:101CA00010D0B3F1804F0DD0A2F59432934209D0F9
:101CB00002F58062934205D01A6842F001021A6070
:101CC000002070479A6802F00702062A07D01A68B7
:101CD00042F001021A600020704701207047002086
:101CE000704700BF002C0140704770477047704735
:101CF00010B5044603681A6912F0020F11D0DA68B1
:101D000012F0020F0DD06FF002021A610123037767
:101D100003689B6913F0030F70D0FFF7E6FF002301
:101D2000237723681A6912F0040F12D0DA6812F0D0
:101D3000040F0ED06FF004021A6102232377236888
:101D40009B6913F4407F5FD02046FFF7CEFF00234E
:101D5000237723681A6912F0080F12D0DA6812F09C
:101D6000080F0ED06FF008021A610423237723684E
:101D7000DB6913F0030F4ED02046FFF7B6FF0023B8
:101D8000237723681A6912F0100F12D0DA6812F064
:101D9000100F0ED06FF010021A610823237723680A
:101DA000DB6913F4407F3DD02046FFF79EFF002300
:101DB000237723681A6912F0010F03D0DA6812F052
:101DC000010F36D123681A6912F0800F03D0DA6848
:101DD00012F0800F34D123681A6912F0400F03D03B
:101DE000DA6812F0400F32D123681A6912F0200F1E
:101DF00003D0DA6812F0200F30D110BDFFF774FF66
:101E00002046FFF773FF8AE72046FFF76DFF204665
:101E1000FFF76CFF9BE72046FFF766FF2046FFF7C2
:101E200065FFACE72046FFF75FFF2046FFF75EFF48
:101E3000BDE76FF001021A61204603F07BFFC1E7A6
:101E40006FF080021A61204600F039FAC3E76FF0A4
:101E500040021A612046FFF74AFFC5E76FF02002F3
:101E60001A61204600F02AFAC7E7000003681B4AFF
:101E700090420AD0B0F1804F07D0A2F59432904240
:101E800003D002F58062904203D123F070034A68C8
:101E90001343124A90420AD0B0F1804F07D0A2F506
:101EA0009432904203D002F58062904203D123F431
:101EB0004073CA68134323F080034A6913430360E5
:101EC0008B68C3620B688362044B984202D0012383
:101ED000436170470B690363F9E700BF002C0140C1
:101EE00040B310B5044690F83D30F3B1022384F8B6
:101EF0003D30214651F8040BFFF7B8FF012384F869
:101F0000463084F83E3084F83F3084F8403084F81E
:101F1000413084F8423084F8433084F8443084F807
:101F2000453084F83D30002010BD80F83C30FFF78C
:101F3000A5FEDBE70120704740B310B5044690F8DA
:101F40003D30F3B1022384F83D30214651F8040BB3
:101F5000FFF78CFF012384F8463084F83E3084F884
:101F60003F3084F8403084F8413084F8423084F8BF
:101F7000433084F8443084F8453084F83D30002004
:101F800010BD80F83C3003F0FBFFDBE70120704719
:101F900030B4036A026A22F0100202624468826965
:101FA00022F4E6420D6842EA052223F020038D6800
:101FB00043EA05130E4DA84209D00D4DA8420ED09C
:101FC000446082614A688263036230BC704723F0D8
:101FD0008003CD6843EA051323F04003EDE724F4C2
:101FE00040644D6944EA85048D6944EA8504E7E765
:101FF000002C014038B590F83C30012B66D00446E7
:102000000D46012380F83C300C2A5AD8DFE802F054
:10201000075959591B5959593059595944000068A1
:10202000FFF7A8FD2268936943F0080393612268D3
:10203000936923F0040393612268936929690B4330
:10204000936100203EE00068FFF7A2FF22689369D9
:1020500043F4006393612268936923F4806393617E
:1020600022689369296943EA01239361002029E0EA
:102070000068FFF7ADFD2268D36943F00803D36120
:102080002268D36923F00403D3612268D3692969E4
:102090000B43D361002015E00068FFF7CBFD2268F9
:1020A000D36943F40063D3612268D36923F4806366
:1020B000D3612268D369296943EA0123D3610020EF
:1020C00000E00120002384F83C3038BD0220FCE70A
:1020D00001F01F01012303FA01FC036A23EA0C0348
:1020E0000362036A02FA01F10B43036270470000C6
:1020F00010B50446084651BB94F83E30DBB2013BB4
:1021000018BF0123002B5BD1002839D1022384F8AA
:102110003E30012201462068FFF7DAFF23682A4A91
:1021200093423DD02368284A93423ED0B3F1804F7A
:102130003BD0A2F59432934237D002F580629342AD
:1021400033D01A6842F001021A60002039E00429F5
:1021500008D008290DD094F84130DBB2013B18BFFC
:102160000123CFE794F83F30DBB2013B18BF0123D6
:10217000C8E794F84030DBB2013B18BF0123C1E748
:10218000042805D0082807D0022384F84130C0E78E
:10219000022384F83F30BCE7022384F84030B8E7DC
:1021A0005A6C42F400425A64BCE79A6802F0070293
:1021B000062A07D01A6842F001021A60002000E0E7
:1021C000012010BD0020FCE7002C014038B504467A
:1021D0000D4600220068FFF77BFF23681B4A9342ED
:1021E00014D02368196A41F21112114208D1196AF8
:1021F00040F24442114203D11A6822F001021A60EF
:102200009DB9012384F83E30002038BD196A41F29F
:1022100011121142E5D1196A40F244421142E0D153
:102220005A6C22F400425A64DBE7042D05D0082DD5
:1022300007D0012384F84130E6E7012384F83F30DA
:10224000E2E7012384F84030DEE700BF002C0140C4
:1022500090F83C30012B2CD010B4012380F83C3096
:10226000022380F83D3003685A689C6822F0700CA5
:102270000A6842EA0C025A6003680F4A93420AD085
:10228000B3F1804F07D0A2F59432934203D002F508
:102290008062934204D124F080044A6814439C6015
:1022A000012380F83D30002380F83C30184610BCF4
:1022B00070470220704700BF002C014070477047F4
:1022C000026802F10C0353E8003F23F490730C32D0
:1022D00042E800310029F3D1026802F1140353E807
:1022E000003F23F00103143242E800310029F3D10A
:1022F000036B012B05D0202380F8423000230363B9
:102300007047026802F10C0353E8003F23F010030A
:102310000C3242E800310029F3D1ECE790F841306B
:10232000DBB2212B01D0022070478368B3F5805FB8
:1023300017D0036A5A1C02621A7803685A60C38C69
:102340009BB2013B9BB2C3844BB90268D36823F0B4
:102350008003D3600268D36843F04003D360002059
:1023600070470369002BE4D1036A1B880268C3F33A
:1023700008035360036A02330362E0E710B50446C2
:102380000268136923F44053C1680B4313618368E7
:102390000269134342691A430168CB6823F4B053BE
:1023A00023F00C031343CB600268536923F440739A
:1023B00081690B4353610268134B9A4220D0FFF7A7
:1023C000A5F9024602EB820202EB820263689B00DF
:1023D000B2FBF3F20D48A0FB02314909642303FB71
:1023E00011231B013233A0FB03235B0903F0F0022E
:1023F00002EB011203F00F03216813448B6010BD40
:10240000FFF794F90246DDE7003801401F85EB51E4
:102410002DE9F84305460F4616469946DDF820801B
:102420002C68246837EA04030CBF4FF0010C4FF00E
:10243000000CB4452DD1B8F1FF3FF1D0B8F1000F39
:1024400005D0FEF759FEA0EB09004045E8D92A68FF
:1024500002F10C0353E8003F23F4D0730C3242E83E
:1024600000310029F3D12A6802F1140353E8003F38
:1024700023F00103143242E800310029F3D1202374
:1024800085F8413085F84230002385F8403003203C
:1024900000E00020BDE8F88360B310B5044690F872
:1024A000413013B3242384F841302268D36823F4E5
:1024B0000053D3602046FFF761FF2268136923F4BD
:1024C000904313612268536923F02A035361226801
:1024D000D36843F40053D36000206064202384F861
:1024E000413084F84230606310BD80F8403003F022
:1024F00063FBD7E7012070472DE9F04182B01E460B
:1025000090F84130DBB2202B4BD104460D4690466B
:1025100000294AD00AB9012044E000234364212362
:1025200080F84130FEF7E8FD0746A4F82480A4F8BF
:102530002680A368B3F5805F02D04FF000080FE05B
:102540002369FBB14FF000080AE038F8023B22682B
:10255000C3F308035360E28C92B2013A92B2E28470
:10256000E38C9BB28BB100963B4600228021204633
:10257000FFF74EFFD8B9002DE7D015F8012B2368DF
:102580005A60E8E7A8460025EAE700963B460022A5
:1025900040212046FFF73CFF58B9202384F8413002
:1025A00000E0022002B0BDE8F0810120FAE703203C
:1025B000F8E70320F6E7704708B50168CA6822F01B
:1025C0004002CA60202280F84120FFF7F4FF00207B
:1025D00008BD704708B5406A0023C385C384FFF770
:1025E000F8FF08BD704790F84230DBB2222B69D16A
:1025F0008368B3F5805F4FD0826AB3F5805F04D003
:10260000002B56D10369002B53D103685B6813700C
:10261000836A01338362C38D9BB2013B9BB2C38546
:10262000002B51D100B583B00268D36823F020039A
:10263000D3600268D36823F48073D360026853695F
:1026400023F001035361202380F8423000234363C9
:10265000036B012B33D100230363026802F10C03E7
:1026600053E8003F23F010030C3242E80031002908
:10267000F3D103681A6812F0100F06D000220192FD
:102680001A6801925B680193019B818DFFF7AAFF95
:10269000002003B05DF804FB0269002AACD1826A15
:1026A00003685B68C3F308031380836A02338362A1
:1026B000B1E703685B6803F07F031370A8E702F0DB
:1026C00017FBE5E7022070470020704730B583B064
:1026D000044602681368D068516913F00F0505D1EC
:1026E00013F0200F02D010F0200F19D12DB111F0EE
:1026F000010119D110F4907F16D1216B01297DD0F1
:1027000013F0800F03D010F0800F40F0188113F009
:10271000400F03D010F0400F40F0158103B030BDE2
:102720002046FFF760FFF9E713F0010F06D010F421
:10273000807F03D0626C42F00102626413F0040FE8
:1027400004D019B1626C42F00202626413F0020F0D
:1027500004D019B1626C42F00402626413F0080FF5
:1027600007D010F0200F00D119B1626C42F00802BE
:102770006264626C002AD1D013F0200F02D010F0F6
:10278000200F29D123685B6903F04003626C12F0CB
:10279000080F00D163B32046FFF792FD23685B6901
:1027A00013F0400F20D0226802F1140353E8003FD9
:1027B00023F04003143242E800310029F3D1E36BE7
:1027C00073B1634A5A63E06BFFF730F90028A5D074
:1027D000E06B436B9847A1E72046FFF704FFD1E782
:1027E0002046FFF7F6FE99E72046FFF7F2FE95E751
:1027F0002046FFF7EEFE002363648FE713F0100F0F
:102800003FF47EAF10F0100F3FF47AAF0023019336
:102810001368019353680193019B536913F0400FB0
:1028200051D0E26B13685B689BB2002B3FF476AF2C
:10283000A18D99427FF672AFE3859369202B37D043
:10284000226802F10C0353E8003F23F480730C323A
:1028500042E800310029F3D1226802F1140353E861
:10286000003F23F00103143242E800310029F3D184
:10287000226802F1140353E8003F23F040031432AE
:1028800042E800310029F3D1202384F842300023AC
:102890002363226802F10C0353E8003F23F0100386
:1028A0000C3242E800310029F3D1E06BFFF79AF8CF
:1028B00002236363A18DE38D9BB2C91A89B22046BE
:1028C000FFF790FE2AE7A18DE38D9BB2C91A89B26A
:1028D000E38D9BB2002B3FF421AF00293FF41EAFE4
:1028E000226802F10C0353E8003F23F490730C328A
:1028F00042E800300028F3D1226802F1140353E8C3
:10290000003F23F00103143242E800300028F3D1E5
:10291000202384F8423000232363226802F10C0351
:1029200053E8003F23F010030C3242E80030002847
:10293000F3D1022363632046FFF754FEEEE6204600
:10294000FFF7ECFCEAE62046FFF736FEE6E600BFBE
:10295000D525000881628285C28500234364222335
:1029600080F84230036923B10268D36843F480736E
:10297000D3600268536943F0010353610268D3686E
:1029800043F02003D3600020704708B590F8423030
:10299000DBB2202B08D149B10AB9012008BD0023C0
:1029A0000363FFF7D7FFF9E70220F7E70120F5E718
:1029B00000F1080343604FF0FF328260C36003619F
:1029C00000230360704700230361704743684B6036
:1029D0009A688A60516099600861036801330360F6
:1029E000704730B40D68B5F1FF3F11D000F1080316
:1029F0001C465B681A68AA42FAD963684B60996002
:102A00008C606160086103680133036030BC70470B
:102A10000469F2E70369416882688A60416851602D
:102A20005A68824206D0002202611A68013A1A608E
:102A30001868704782685A60F5E70346406A18B123
:102A40001B6B1868C0F13800704710B5044601F0E0
:102A500059FFA26BE36B9A4204D0002401F074FF8B
:102A6000204610BD0124F9E710B5044601F04AFFE5
:102A7000A36B23B9012401F067FF204610BD002499
:102A8000F9E770B504461546866B026C5AB90368BF
:102A90001BB100200136A66370BD406801F0D4F977
:102AA00000236360F6E76DB9806803F01DFD226CBA
:102AB000A3681344A3606268934219D32368A36098
:102AC0002846E7E7C06803F00FFD226C5142E36837
:102AD0009B1AE3602268934202D263680B44E3606E
:102AE000022D01D00020D5E726B1013E0020D1E71C
:102AF0002846CFE70020CDE708B50346026C62B157
:102B00000846D9681144D960D3F804C0614501D39F
:102B10001968D960D96803F0E7FC08BD38B50546E7
:102B200001F0F0FE95F8454064B201E0013C64B26A
:102B3000002C0ADD6B6A43B105F1240001F08EF828
:102B40000028F3D001F01EF9F0E7FF2385F84530A7
:102B500001F0FAFE01F0D6FE95F8444064B201E0BF
:102B6000013C64B2002C0ADD2B6943B105F1100071
:102B700001F074F80028F3D001F004F9F0E7FF2326
:102B800085F8443001F0E0FE38BD38B5E0B10D46BF
:102B9000044601F0B7FE2368E26B216C01FB0230B2
:102BA00060600020A063A360013A02FB0133E36090
:102BB000FF2384F8443084F84530FDB9236963B9B4
:102BC00001F0C2FE012038BD4FF0500383F311889D
:102BD000BFF36F8FBFF34F8FFEE704F1100001F0DA
:102BE0003DF80028ECD04FF0E0234FF08052C3F8BE
:102BF000042DBFF34F8FBFF36F8FE1E704F1100097
:102C0000FFF7D6FE04F12400FFF7D2FED8E738B56F
:102C10001D46049C0B4649B92460E06323640121EE
:102C20002046FFF7B2FF84F84C5038BD2260F4E72D
:102C300040B94FF0500383F31188BFF36F8FBFF398
:102C40004F8FFEE710B584B01C46844653B192B155
:102C500089B94FF0500383F31188BFF36F8FBFF32F
:102C60004F8FFEE74FF0500383F31188BFF36F8F50
:102C7000BFF34F8FFEE76AB150230393039B502BA2
:102C800013D04FF0500383F31188BFF36F8FBFF35E
:102C90004F8FFEE70029EFD04FF0500383F31188E8
:102CA000BFF36F8FBFF34F8FFEE7012384F84630E9
:102CB00000949DF818306046FFF7A9FF204604B045
:102CC00010BD40B94FF0500383F31188BFF36F8FED
:102CD000BFF34F8FFEE7F0B583B00C4615460746AD
:102CE000A1B101FB00F0503001F004FD064650B1E7
:102CF000002380F8463000902B4600F15002214618
:102D00003846FFF784FF304603B0F0BD0846EAE7D7
:102D1000F0B585B0019288B10F461D460446B1B1A9
:102D2000022D20D1E36B012B1DD04FF0500383F314
:102D30001188BFF36F8FBFF34F8FFEE74FF0500343
:102D400083F31188BFF36F8FBFF34F8FFEE7036CE0
:102D5000002BE5D04FF0500383F31188BFF36F8F42
:102D6000BFF34F8FFEE701F013F8064658B9019BF9
:102D7000002B48D04FF0500383F31188BFF36F8FBF
:102D8000BFF34F8FFEE700263DE02A463946204636
:102D9000FFF777FE636A7BB948B14FF0E0234FF04D
:102DA0008052C3F8042DBFF34F8FBFF36F8F01F034
:102DB000CBFD012005B0F0BD04F1240000F04EFF72
:102DC0000028F4D04FF0E0234FF08052C3F8042DD8
:102DD000BFF34F8FBFF36F8FE9E701F0B5FD002020
:102DE000E8E702A800F080FF012619E0002384F83C
:102DF000443021E0002384F8453023E02046FFF7EB
:102E00008DFE00F00BFE01F07DFDA26BE36B9A429C
:102E1000BBD3022DB9D0019B002BDED0002EE0D019
:102E200001F092FD00F060FD01F06CFD94F844208B
:102E300052B2B2F1FF3FD9D094F8452052B2B2F16C
:102E4000FF3FD7D001F080FD01A902A800F058FF94
:102E5000D8B92046FFF7F9FD0028CFD0019904F139
:102E6000100000F0C7FE2046FFF758FE00F0D6FD28
:102E70000028C8D14FF0E0234FF08052C3F8042D52
:102E8000BFF34F8FBFF36F8FBDE72046FFF746FEBE
:102E900000F0C4FD00208DE748B108B50021416075
:102EA0000160C1600B460A46FFF732FF08BD70475C
:102EB00010B5024600210120FFF703FF0446FFF78B
:102EC000EBFF204610BD2DE9F84390B10F461646A2
:102ED0001C460546B1B1022C20D1EB6B012B1DD055
:102EE0004FF0500383F31188BFF36F8FBFF34F8F01
:102EF000FEE74FF0500383F31188BFF36F8FBFF3EA
:102F00004F8FFEE7036C002BE5D04FF0500383F3A7
:102F10001188BFF36F8FBFF34F8FFEE701F0DCFD29
:102F2000EFF311894FF0500383F31188BFF36F8FD4
:102F3000BFF34F8FAA6BEB6B9A4206D3022C04D0DF
:102F4000002089F31188BDE8F88395F845804FFA91
:102F500088F8224639462846FFF793FDB8F1FF3F2F
:102F600006D008F101035BB285F845300120E8E79F
:102F70006B6A0BB90120E4E705F1240000F06EFE56
:102F800018B126B101203060DBE70120D9E701202C
:102F9000D7E768B170B50C460546036C8BB14FF0AE
:102FA000500383F31188BFF36F8FBFF34F8FFEE79A
:102FB0004FF0500383F31188BFF36F8FBFF34F8F30
:102FC000FEE70368EBB101F087FDEFF311864FF0E8
:102FD000500383F31188BFF36F8FBFF34F8FAA6B3A
:102FE000EB6B934226D995F845305BB20132AA6368
:102FF000B3F1FF3F11D001335BB285F845300120BA
:1030000019E04368002BDED04FF0500383F31188A2
:10301000BFF36F8FBFF34F8FFEE76B6A0BB90120D1
:1030200009E005F1240000F019FE38B144B1012097
:10303000206000E0002086F3118870BD0120FAE7CF
:103040000120F8E7F0B585B0019290B10F46044633
:10305000C1B100F09DFE064600BB019B002B5ED077
:103060004FF0500383F31188BFF36F8FBFF34F8F7F
:10307000FEE74FF0500383F31188BFF36F8FBFF368
:103080004F8FFEE7036C002BE3D04FF0500383F328
:103090001188BFF36F8FBFF34F8FFEE700263EE02E
:1030A00039462046FFF728FD013DA563236923B972
:1030B00001F04AFC012005B0F0BD04F1100000F061
:1030C000CDFD0028F4D04FF0E0234FF08052C3F83C
:1030D000042DBFF34F8FBFF36F8FE9E701F034FC8E
:1030E0000020E8E702A800F0FFFD012621E0002310
:1030F00084F8443029E0002384F845302BE0204652
:10310000FFF70CFD00F08AFC09E02046FFF706FD02
:1031100000F084FC2046FFF7A7FC00283FD101F017
:10312000F1FBA56B002DBBD1019B002BD6D0002E4F
:10313000D8D001F009FC00F0D7FB01F0E3FB94F8D4
:1031400044305BB2B3F1FF3FD1D094F845305BB26D
:10315000B3F1FF3FCFD001F0F7FB01A902A800F0C7
:10316000CFFD0028D1D12046FFF77EFC0028C6D035
:10317000019904F1240000F03DFD2046FFF7CEFC4C
:1031800000F04CFC0028CAD14FF0E0234FF08052F1
:10319000C3F8042DBFF34F8FBFF36F8FBFE700203D
:1031A00089E770B584B0019158B10446036C8BB1C6
:1031B0004FF0500383F31188BFF36F8FBFF34F8F2E
:1031C000FEE74FF0500383F31188BFF36F8FBFF317
:1031D0004F8FFEE700F0DCFD054650B9019B5BB167
:1031E0004FF0500383F31188BFF36F8FBFF34F8FFE
:1031F000FEE70026354655E0064653E0013BA36353
:1032000023683BB123694BB901F09EFB0126304690
:1032100004B070BD00F0B0FE6060F3E704F1100090
:1032200000F01CFD0028EFD04FF0E0234FF080525B
:10323000C3F8042DBFF34F8FBFF36F8FE4E746B1A0
:103240004FF0500383F31188BFF36F8FBFF34F8F9D
:10325000FEE701F079FBDAE702A800F045FD012561
:103260002AE0002384F8443032E0002384F845301B
:1032700034E001F047FB606800F09AFD064601F07B
:1032800063FB3BE02046FFF749FC00F0C7FB09E089
:103290002046FFF743FC00F0C1FB2046FFF7E4FBAC
:1032A000002842D101F02EFBA36B002BA6D1019B7D
:1032B000002BC4D0002DCFD001F046FB00F014FB52
:1032C00001F020FB94F844305BB2B3F1FF3FC8D06B
:1032D00094F845305BB2B3F1FF3FC6D001F034FB48
:1032E00001A902A800F00CFD0028D1D12046FFF76B
:1032F000BBFB0028C6D02368002BBAD0019904F18B
:10330000240000F077FC2046FFF708FC00F086FB65
:103310000028C7D14FF0E0234FF08052C3F8042DAE
:10332000BFF34F8FBFF36F8FBCE70EB900266EE778
:1033300001F0E8FA2046FFF780FB0146606800F0E4
:10334000CBFD01F001FBF1E72DE9F843B0B10D46EB
:1033500016460446D9B101F0BFFBEFF311884FF0D8
:10336000500383F31188BFF36F8FBFF34F8FA76BA9
:10337000CFB9002088F31188BDE8F8834FF05003DF
:1033800083F31188BFF36F8FBFF34F8FFEE7036C9A
:10339000002BE0D04FF0500383F31188BFF36F8F01
:1033A000BFF34F8FFEE794F844904FFA89F929460E
:1033B0002046FFF7A1FB013FA763B9F1FF3F06D00D
:1033C00009F101035BB284F844300120D2E723699C
:1033D0000BB90120CEE704F1100000F03FFC18B15A
:1033E00026B101203060C5E70120C3E70120C1E715
:1033F0000023072B0CD8074A52F833200AB10133B7
:10340000F7E7044A42F8331002EBC30358607047F1
:10341000704700BF0002002070B504460D461646F6
:1034200001F070FA94F844305BB2B3F1FF3F0DD075
:1034300094F845305BB2B3F1FF3F0BD001F084FA52
:10344000A36B5BB12046FFF769FB70BD002384F8D6
:103450004430EDE7002384F84530EFE73246294653
:1034600004F1240000F0DEFBECE70000084B1B68D1
:103470001B6823B9074B4FF0FF321A607047044BAB
:103480001B68DB68DB685A68024B1A60704700BF34
:1034900044020020F00600202DE9F04780460D464A
:1034A00017469946089EDDF824A00A9C9200A521A3
:1034B000206B03F027F8236B07F18042013A03EBFE
:1034C000820727F007074FF0000CBCF10F0F0BD855
:1034D00015F80C2004EB0C0383F8342015F80C309D
:1034E00013B10CF1010CF0E7002384F84330372EC0
:1034F00000D93726E662E66400252565201DFFF722
:1035000062FA04F11800FFF75EFA2461C6F138068A
:10351000A6616462656584F858504A46414638465B
:1035200001F0C8F92060BAF1000F01D0CAF80040DC
:10353000BDE8F08738B5002407E004EB840293006F
:103540000E481844FFF734FA0134372CF5D90C4DE6
:103550002846FFF72DFA0B4C2046FFF729FA0A48B8
:10356000FFF726FA0948FFF723FA0948FFF720FA80
:10357000084B1D60084B1C6038BD00BF4C0200208A
:10358000C4060020D8060020F806002024070020EA
:1035900010070020440200204802002010B5044615
:1035A00001F0B0F9224A136801331360214B1B6804
:1035B0005BB1214B1B686BB91E4B1B68DA6AE36A6F
:1035C0009A4207D81B4B1C6004E01A4B1C6013681E
:1035D000012B29D0194A1368013313606364E06A30
:1035E000174B1B68984201D9154B186000EB8000FF
:1035F000211D144B03EB8000FFF7E8F901F0A4F95B
:103600000D4B1B687BB10B4B1B68DA6AE36A9A426D
:1036100009D24FF0E0234FF08052C3F8042DBFF3DE
:103620004F8FBFF36F8F10BDFFF784FFD2E700BF4E
:10363000AC060020400200200C070020BC06002041
:10364000C00600204C02002010B5044690F8593006
:1036500063B1012B11D0022B0ED04FF0500383F336
:103660001188BFF36F8FBFF34F8FFEE7006B01F040
:10367000B9F8204601F0B6F810BD01F0B3F8FBE749
:103680000F4B1B68D3B110B501F03CF90D4BDB6853
:10369000DC68201DFFF7BEF90B4A1368013B13607D
:1036A000074A1368013B136001F04EF92046FFF70B
:1036B000CBFF034B1B68002BE6D110BD704700BF4A
:1036C000B006002024070020AC06002008B5FFF754
:1036D000D7FF074B1B68012BF9D94FF0E0234FF0C0
:1036E0008052C3F8042DBFF34F8FBFF36F8FEEE707
:1036F0004C02002070B504460D46174B1E68174B50
:1037000018680430FFF786F9B4F1FF3F0DD0344458
:10371000124B1B685C60A64210D9114B18680F4B06
:1037200019680431FFF75DF970BD002DEFD00B4B28
:10373000196804310B48FFF749F9F5E70A4B186897
:10374000064B19680431FFF74CF9084B1B68A3427C
:10375000EAD9064B1C60E7E738070020400200204A
:10376000480200201007002044020020F00600203C
:1037700030B587B00B9C7CB10C9DB5B15C25049530
:10378000049D5C2D1AD04FF0500383F31188BFF3D2
:103790006F8FBFF34F8FFEE74FF0500383F3118815
:1037A000BFF36F8FBFF34F8FFEE74FF0500383F3EC
:1037B0001188BFF36F8FBFF34F8FFEE70C9D2C6313
:1037C000022485F8594000240394029505AC019425
:1037D0000A9C0094FFF760FE0C98FFF7DFFE059847
:1037E00007B030BD2DE9F04385B007468846144642
:1037F0001E46900000F07EFF00B381465C2000F082
:1038000079FF0546B0B1C0F83090E5B1002385F8E6
:103810005930039302950D9B01930C9B0093334603
:10382000224641463846FFF737FE2846FFF7B6FEE8
:10383000012005E0484600F0D5FFE6E74FF0FF30F5
:1038400005B0BDE8F0834FF0FF30F9E710B588B060
:1038500000240594069407AA06A905A800F0CEFE48
:10386000059B0293069B019300942346079A1849EF
:103870001848FFF77DFF184B186040B100F016FCA8
:10388000012806D0B0F1FF3F18D008B010BD0020CD
:10389000F6E74FF0500383F31188BFF36F8FBFF348
:1038A0004F8F0E4B4FF0FF321A600D4B01221A6002
:1038B0000C4B00221A6001F0AFF8E6E74FF050031E
:1038C00083F31188BFF36F8FBFF34F8FFEE700BF05
:1038D0000C930008CD360008EC060020F00600200E
:1038E0000C07002038070020024A136801331360D8
:1038F000704700BFB8060020014B1868704700BF32
:1039000038070020F8B53A4B1B68002B64D1394BBF
:103910001D6801351D60C5B9374B1B681B6843B175
:103920004FF0500383F31188BFF36F8FBFF34F8FB6
:10393000FEE7314A1168314B186810601960304A4F
:10394000136801331360FFF791FD2E4B1B68AB42E8
:1039500038D900272C4B1B68DB6A03EB83039A00E2
:103960002A4B9B58012B3CD901273AE00127224BD7
:103970001B681B6843B3204B1B68DB68DC6863680B
:103980009D4226D3261D3046FFF744F8A36A1BB19B
:1039900004F11800FFF73EF8E36A1D4A12689342EB
:1039A00001D91B4A136003EB83039A003146174881
:1039B0001044FFF70BF8E26A134B1B68DB6A9A426C
:1039C000D4D2D4E70027D2E70E4B4FF0FF321A6073
:1039D000C0E70C4A1360BDE70E4A13680133136059
:1039E00000270D4B1B6803B101273846F8BD00BF07
:1039F000B8060020380700204402002048020020BA
:103A0000F4060020F0060020400200204C020020B6
:103A1000C0060020B40600203C07002038B5354B16
:103A20001B6843B94FF0500383F31188BFF36F8FC6
:103A3000BFF34F8FFEE700F065FF2E4B1A68013A87
:103A40001A601B68002B4FD12B4B1B680BB900244D
:103A50004BE00024294B1B681BB3284BDB68DC6858
:103A600004F11800FEF7D6FF251D2846FEF7D2FF09
:103A7000E06A234B1B68984201D9214B186000EB88
:103A8000800029461F4B03EB8000FEF79FFFE26A90
:103A90001D4B1B68DB6A9A42DCD31C4B01221A6067
:103AA000D8E70CB1FFF7E2FC194B1C6884B9174B3F
:103AB0001C68D4B14FF0E0234FF08052C3F8042DBE
:103AC000BFF34F8FBFF36F8F01240EE0013C07D08F
:103AD000FFF718FF0028F9D00C4B01221A60F5E718
:103AE0000B4B00221A60E2E7002400F02DFF204675
:103AF00038BD00BFB8060020AC060020F806002044
:103B0000C00600204C020020400200203C0700209C
:103B1000B406002010B5A8B10446104B1B6843B191
:103B20004FF0500383F31188BFF36F8FBFF34F8FB4
:103B3000FEE7FFF7D9FE00212046FFF7DBFDFFF788
:103B40006DFF48B94FF0E0234FF08052C3F8042DC9
:103B5000BFF34F8FBFF36F8F10BD00BFB8060020BB
:103B60001F4B1B681BB11F4B01221A6070471D4B76
:103B700000221A601C4B1B6803EB83018A001B495F
:103B80008A585AB90BB1013BF6E74FF0500383F363
:103B90001188BFF36F8FBFF34F8FFEE703EB8300F6
:103BA00082000A4450684068506003EB830C4FEA7F
:103BB0008C020832114488420BD003EB830291003F
:103BC0000A4A0A445268D168094A1160064A1360D9
:103BD0007047406862469100044A0A445060ECE72E
:103BE000B80600203C070020C00600204C02002040
:103BF0004002002058B110B50C46094A116818312E
:103C0000FEF7EFFE01212046FFF774FD10BD4FF0D7
:103C1000500383F31188BFF36F8FBFF34F8FFEE71D
:103C20004002002038B570B10D4614460A4A1168AA
:103C30001831FEF7CBFE0CB14FF0FF352146284678
:103C4000FFF758FD38BD4FF0500383F31188BFF3E1
:103C50006F8FBFF34F8FFEE74002002038B5C36877
:103C6000DC6824B304F118052846FEF7D3FE184B90
:103C70001B682BBB251D2846FEF7CCFEE06A154BC2
:103C80001B68984201D9134B186000EB800029464D
:103C9000114B03EB8000FEF799FEE26A0F4B1B68A5
:103CA000DB6A9A4211D901200D4B186038BD4FF0E4
:103CB000500383F31188BFF36F8FBFF34F8FFEE77D
:103CC00029460848FEF782FEE7E70020EEE700BF3E
:103CD000B8060020C00600204C0200204002002050
:103CE0003C070020F8060020034B1B680360034BD1
:103CF0001B684360704700BFF406002038070020AF
:103D0000D8B170B50C46054601B300F0FBFD1B4B66
:103D100019686B68C81A2268B2F1FF3F27D0184EA5
:103D20003668D5F800C0B44501D08B4224D9824210
:103D300015D80023236001241AE04FF0500383F3C9
:103D40001188BFF36F8FBFF34F8FFEE74FF0500323
:103D500083F31188BFF36F8FBFF34F8FFEE75B1ABA
:103D6000134423602846FFF7BFFF002400E000242F
:103D700000F0EAFD204670BD0124F9E73807002075
:103D8000F4060020014B01221A6070473C07002016
:103D9000054B1B6833B1054B1B680BB10020704706
:103DA00002207047012070470C070020B806002051
:103DB00000283FD038B50446C36A204A1268D26A48
:103DC00093422FD28269002A05DB1C4A1268D26A0C
:103DD000C2F138028261616903EB8303184A02EB86
:103DE0008303994205D0154B1B68DB6AE36201200F
:103DF00038BD251D2846FEF70DFE104B1B68D86AFE
:103E0000E062104B1B68984209D800EB80002946FD
:103E10000B4B03EB8000FEF7D9FD0120E8E7094BCF
:103E20001860F2E7C26C054B1B68DB6A9A4203D349
:103E30000020DDE7002070470120D9E74002002084
:103E40004C020020C006002000283BD038B50446B4
:103E50001E4B1B68834208D04FF0500383F3118838
:103E6000BFF36F8FBFF34F8FFEE7036D43B94FF082
:103E7000500383F31188BFF36F8FBFF34F8FFEE7BB
:103E8000013B0365C16AC26C91421DD00BB1002099
:103E900038BD051D2846FEF7BDFDE06CE062C0F1AF
:103EA0003803A3610A4B1B68984201D9084B18607C
:103EB00000EB80002946074B03EB8000FEF786FDF0
:103EC0000120E5E7002070470020E1E740020020E4
:103ED000C00600204C020020002846D038B5044619
:103EE000036D43B94FF0500383F31188BFF36F8F15
:103EF000BFF34F8FFEE7C26C8A4200D20A46E16AE6
:103F0000914201D0012B00D038BD184B1B68A34251
:103F100022D0E262A369002B02DBC2F13802A26167
:103F2000626901EB8101124B03EB81018A42EBD103
:103F3000251D2846FEF76EFDE06A0E4B1B68984271
:103F400001D90C4B186000EB80002946084B03EBAD
:103F50008000FEF73BFDD7E74FF0500383F3118855
:103F6000BFF36F8FBFF34F8FFEE770474002002013
:103F70004C020020C0060020054B1B6823B1044BF7
:103F80001A68136D01331365014B1868704700BF41
:103F900040020020064B1A681368B3FA83F35B09EA
:103FA000036013B9D368186870470020704700BFDA
:103FB0004007002008B54160006191420CD8D21A38
:103FC00083699A4201D3012008BD011D094B18687D
:103FD000FEF707FD0020F7E79A4201D2994206D288
:103FE000011D054B1868FEF7FCFC0020ECE70120E2
:103FF000EAE700BF440700204007002030B583B047
:1040000000F080FC114B1B681BB100F09DFC03B05D
:1040100030BD0F4D2846FEF7CBFC0E4C2046FEF778
:10402000C7FC0D4B1D600D4B1C60002300930C4B17
:104030000C4A10210A20FEF7FBFD044B18600028F3
:10404000E3D00949FFF7D4F9DFE700BF6408002097
:10405000E8070020FC07002040070020440700205C
:104060001408002048070020149300082DE9F041AF
:10407000079F41B94FF0500383F31188BFF36F8F4F
:10408000BFF34F8FFEE7064615461C4688465FB1D4
:10409000FFF7B4FF3E60C7F81880FD613C62069BE5
:1040A0007B62381DFEF78FFCBDE8F08110B588B04B
:1040B000FFF7A4FF124B1B68CBB1002405940694B4
:1040C00007AA06A905A800F0A5FA059B0293069B7E
:1040D0000193022300932346079A0A490A48FFF7EF
:1040E00047FB0A4B186010B1012008B010BD4FF01B
:1040F000500383F31188BFF36F8FBFF34F8FFEE739
:10410000640800201C93000825440008680800206B
:104110002DE9F04182B00446884615461E463020FF
:1041200000F0E8FA074658B10190089B0093334627
:104130002A4641462046FFF799FF002387F82C3096
:10414000384602B0BDE8F081B8B19C460346184835
:10415000006858B300B585B000910192029305291B
:104160001CDCFFF715FE022810D000231A46694612
:104170000F480068FEF7CCFD15E04FF0500383F3C5
:104180001188BFF36F8FBFF34F8FFEE70023069AAE
:10419000694607480068FEF7BBFD04E0002362465D
:1041A0006946FEF790FE05B05DF804FB00207047FD
:1041B0006408002070B582B01A4B1B681A6852B3AD
:1041C000DB681E68DC68251D2846FEF723FC636A51
:1041D00020469847E369012BEED1A36933449E4200
:1041E00007D26360246129460E4B1868FEF7F9FB7D
:1041F000E2E7002100910B4632462046FFF7A4FF7C
:104200000028D9D14FF0500383F31188BFF36F8F8B
:10421000BFF34F8FFEE7044A10680249086013603D
:1042200002B070BD400700204407002038B50546A5
:10423000FFF762FB0446074B1B68834205D8002347
:104240002B60044B1C60204638BDFFF7B3FF0123F1
:104250002B60F6E71008002070B582B006460D46C8
:1042600014490968C968CC68201DFEF7D3FBE169D1
:10427000012904D0636A2046984702B070BDA16945
:1042800033462A4631442046FFF794FE0028F1D0F9
:10429000002100910B4632462046FFF755FF0028CB
:1042A000E8D14FF0500383F31188BFF36F8FBFF352
:1042B0004F8FFEE74007002070B582B006460C46DF
:1042C000FFF712FB01A8FFF7B1FF019B2BBB0546CF
:1042D0000CB9B0421AD22CB1124B1B681C68B4FA4C
:1042E00084F464092246711B0F4B1868FFF794F899
:1042F000FFF794FB98B94FF0E0234FF08052C3F8DA
:10430000042DBFF34F8FBFF36F8F08E0FFF786FBDD
:1043100029463046FFF7A0FF01E0FFF77FFB02B020
:1043200070BD00BF440700206408002010B588B0AD
:1043300002E0049B002B0FDA002204A9384B186816
:10434000FEF780FE002869D0049B002BF1DA079964
:104350000698059B9847ECE7069C636913B1201DFE
:10436000FEF758FB03A8FFF761FF049B092BE3D876
:1043700001A252F823F000BFA1430008A1430008A6
:10438000A143000839430008E74300080D44000832
:10439000A1430008A143000839430008E74300088F
:1043A000059BA169024619442046FFF703FE002839
:1043B000C2D0636A20469847E369012BBCD1A26949
:1043C000002100910B46059802442046FFF7BCFEF1
:1043D0000028B1D14FF0500383F31188BFF36F8FE2
:1043E000BFF34F8FFEE70599A16131B10346024645
:1043F00001442046FFF7DEFD9EE74FF0500383F3B4
:104400001188BFF36F8FBFF34F8FFEE794F82C3006
:10441000002B91D1204600F0E5F98DE708B010BDE2
:104420006408002000B583B001A8FFF7B3FD01992F
:10443000FFF742FFFFF77AFFF6E70000EFF305838F
:1044400093B9EFF3108393B90C4B1868022804D08A
:1044500080B90A4B01221A607047EFF31183002BD9
:10446000F6D06FF0050070476FF0050070476FF0F1
:10447000050070474FF0FF30704700BFC8090020AB
:1044800008B5EFF30583B3B9EFF31083B3B90E4B5F
:104490001B68022B08D0012B13D10B4B02221A6090
:1044A000FFF7D4F9002008BDEFF31182002AF2D003
:1044B0006FF00500F7E76FF00500F4E76FF0050017
:1044C000F1E74FF0FF30EEE7C8090020F0B587B004
:1044D00000240494EFF30584002C43D1EFF3108300
:1044E000002B3FD1334B1B68022B16D0002839D04C
:1044F00000238DF8173062B3156895B1936903B93D
:1045000018235C1E372C51D8546814F0010F4FD17A
:1045100056694EB14FEA960C08E0EFF311830BBBDE
:10452000E4E70DF11705E9E74FF0400C94682CB172
:10453000D7685B2F02D9176907B1B6B914B14FF02C
:10454000FF340CE0D46894B914699CB14FF0FF3487
:1045500005E0002418234FF0400C0DF11705012C45
:104560000AD0ACB1049807B0F0BD0124F7E74FF0D2
:10457000FF34F4E70024F2E7146992680292019490
:1045800000930B4662462946FFF7F2F80490E9E7EC
:1045900004AA019200930B461FFA8CF22946FFF7FA
:1045A00021F90128DED000230493DBE70020DAE7BD
:1045B0000020D8E7C809002008B5EFF30583A3B9A8
:1045C000EFF31083A3B90C4B1B68022B02D040B948
:1045D000002008BDEFF31183002BF8D06FF0050029
:1045E000F7E7FFF797FA0020F3E76FF00500F0E731
:1045F0006FF00500EDE700BFC8090020034B036022
:10460000034B0B6040231360704700BF6C09002010
:104610006C080020034B0360034B0B608023136086
:10462000704700BFCC0B0020CC090020134A12F0C9
:10463000070F1FD0D11D21F00701C1F51C53103306
:1046400013440A460E480260002141601344083BAF
:1046500023F007030B48036059601960991A5160F1
:104660001360094B1960094B1960094B4FF0004268
:104670001A60704742F21073E4E700BF2C0C002070
:1046800048330020280C0020443300204033002011
:104690003C330020154B1A461B688342FBD35168FC
:1046A00002EB010C844509D0416800EB010C634525
:1046B00009D00360904218D01060704740680144F0
:1046C00051601046F0E710B4094C2468A3420AD0A8
:1046D0005B681944416013681B680360904200D016
:1046E000106010BC70470460F8E770474833002042
:1046F000280C002070B50546FFF7F6F8344B1B6810
:10470000A3B1344B1B681D424AD135B1083515F0B1
:10471000070F02D025F007050835002D42D02E4B9B
:104720001B68AB424DD32D4A146804E0FFF77EFFAF
:10473000E7E722461C466368AB4202D22368002B9F
:10474000F7D1234B1B68A3423DD016680836236877
:10475000136063685B1B102B10D9601910F0070FF2
:1047600008D04FF0500383F31188BFF36F8FBFF36E
:104770004F8FFEE743606560FFF78CFF6268164964
:104780000B689B1A0B60164909688B4201D21449C9
:104790000B60104B1B68134363600023236002E02F
:1047A000002600E00026FFF739F916F0070F0CD0BD
:1047B0004FF0500383F31188BFF36F8FBFF34F8F18
:1047C000FEE70026EFE70026EDE7304670BD00BFAC
:1047D000280C00203C3300204033002048330020C8
:1047E0004433002080B338B50446A0F1080550F8E2
:1047F000043C164A1268134208D14FF0500383F369
:104800001188BFF36F8FBFF34F8FFEE750F8081C7E
:1048100041B14FF0500383F31188BFF36F8FBFF3A3
:104820004F8FFEE723EA020340F8043CFFF75CF8F1
:1048300054F8041C064A13680B4413602846FFF71B
:1048400029FFFFF7EBF838BD704700BF3C3300206D
:104850004033002082B0002301930D4B1B68B3F15D
:10486000FF3F08D04FF0500383F31188BFF36F8FE1
:10487000BFF34F8FFEE74FF0500383F31188BFF370
:104880006F8FBFF34F8F019B002BFCD002B070479E
:104890000800002006480068006880F3088862B6B7
:1048A00061B6BFF34F8FBFF36F8F00DF00BF000013
:1048B00008ED00E04FF0807340F8043C21F0010166
:1048C00040F8081C034B40F80C3C40F8202C4038C2
:1048D000704700BF554800080000000000000000BD
:1048E000074B19680868B0E8F00F80F30988BFF338
:1048F0006F8F4FF0000080F311884EF00D0E70475F
:10490000400200204FF0500383F31188BFF36F8FF4
:10491000BFF34F8F0B4A136801331360012B00D094
:1049200070474FF0E023D3F8043D13F0FF0FF7D0AA
:104930004FF0500383F31188BFF36F8FBFF34F8F96
:10494000FEE700BF08000020094B1B6843B94FF089
:10495000500383F31188BFF36F8FBFF34F8FFEE7D0
:10496000013B034A13600BB983F31188704700BF02
:10497000080000200000000000000000000000000F
:10498000EFF30980BFF36F8F0D4B1A6820E9F00F2A
:1049900010602DE908404FF0500080F31188FFF7B8
:1049A000DFF84FF0000080F31188BDE80840196877
:1049B0000868B0E8F00F80F30988BFF36F8F704785
:1049C0004002002008B54FF0500383F31188BFF375
:1049D0006F8FBFF34F8FFEF795FF28B14FF0E023A5
:1049E0004FF08052C3F8042D002383F3118808BDD3
:1049F0004FF0E022002313619361054B1B680549CA
:104A0000A1FB03139B09013B53610723136170470B
:104A10000C000020D34D621010B582B02A4B1A78DA
:104A2000D2B20192FF221A701B78DBB28DF80330EC
:104A30009DF8033003F05003244A1370244B0722DF
:104A40001A6009E0224A1368013B13609DF80330A5
:104A50005B00DBB28DF803309DF8033013F0800F5C
:104A6000F0D11B4B1B68032B08D04FF0500383F38E
:104A70001188BFF36F8FBFF34F8FFEE71B02144AFD
:104A8000136003F4E0631360019BDBB20E4A137002
:104A90004FF0E023D3F8202D42F47002C3F8202D0C
:104AA000D3F8202D42F07042C3F8202DFFF7A0FF6D
:104AB0000024084B1C60FFF7EDFEFFF751F8FFF7ED
:104AC000C9FE204602B010BD00E400E050330020D3
:104AD0005433002008000020EFF305830F2B0FD97B
:104AE000114A9B5CDBB2114A12789A4208D94FF006
:104AF000500383F31188BFF36F8FBFF34F8FFEE72F
:104B00004FF0E023D3F80C3D03F4E063084A126849
:104B1000934208D94FF0500383F31188BFF36F8F8E
:104B2000BFF34F8FFEE77047F0E300E05033002003
:104B30005433002010B50138032817D8DFE800F0FF
:104B400002172F49B42900D9B4210846FCF752F8BE
:104B50002C49FCF7A7F82C49FCF758F92B49FBF72F
:104B600099FF2B4B1C68FCF789FA606310BDB429D0
:104B700000D9B4214FF4FA6000FB01F1254880FB15
:104B800001300844C917C1EBE01000F5FA70FCF7DA
:104B900035F81F4B1C68FCF771FAA063E6E7B1F526
:104BA000877F01D94FF487714FF4FA6000FB01F160
:104BB000194880FB01300844C917C1EB202000F5DB
:104BC000FA70FCF71BF8124B1C68FCF757FAE0630D
:104BD000CCE7B42900D9B4214FF4FA6000FB01F10D
:104BE0000C4880FB01300844C917C1EBE01000F508
:104BF000FA70FCF703F8064B1C68FCF73FFA2064D8
:104C0000B4E700BF0000FA44000034430000FA4358
:104C100094350020B7600BB649D6B9F210B5094CEF
:104C200008212046FDF764FA0C212046FDF760FAC2
:104C30005A210320FFF77EFF00210420FFF77AFFAF
:104C400010BD00BF9435002008B5FFF7E7FF04480A
:104C500000F02EF84FF4FA60FEF75CFFFAE700BFB1
:104C60002493000870B504460E4D4FF0FF312868BC
:104C7000FEF797FA2046FBF76BFA03460A4E82B21C
:104C800021463046FDF738FC02231A4607493046D4
:104C9000FDF732FC00231A4619462868FEF738F85B
:104CA00070BD00BF5C330020B83400209894000829
:104CB0000FB400B593B014AB53F8042B019340210B
:104CC00002A802F0B3F802A8FFF7CCFF002013B04F
:104CD0005DF804EB04B0704708B5012202490348AF
:104CE000FDF753FE08BD00BF65330020B834002037
:104CF00010B5EFF311844FF0500383F31188BFF325
:104D00006F8FBFF34F8F02680E4B9A4202D084F32D
:104D1000118810BD0C4B1B783BB90C4A1378591CF9
:104D200011700B4A11780B4AD154084B1B78082B91
:104D300005D9054B01221A70044B00221A70FFF7A7
:104D4000CBFFE4E7003801407233002064330020D9
:104D5000653300206833002003780B7043784B7074
:104D600083788B70C378CB7003790B7143794B7167
:104D700083798B71C379CB71037A0B727047000012
:104D800010B582B0044601780D48FFF791FF6178B5
:104D90000C48FFF78DFF6379A27901920093237984
:104DA000E278A1780848FFF783FFE1790748FFF729
:104DB0007FFF217A0648FFF77BFF02B010BD00BFDE
:104DC0003093000844930008589300088493000827
:104DD0009893000830B587B0FFF77EFF944B1B68AF
:104DE0001968C1F340119348FFF762FF49E19DF84C
:104DF0000E509DF80F309DF81040240444EA0364DF
:104E00009DF8113044EA03249DF812301C43A1B2EE
:104E10002846FFF78FFE224629468748FFF748FFBE
:104E200027E19DF80E509DF80F309DF810402404A6
:104E300044EA03649DF8113044EA03249DF81230DB
:104E40001C43022D11D0032D17D0012D05D0224671
:104E500029467A48FFF72CFF0BE12046FBF7CEFEF0
:104E60000146774800F0D0FBF1E72046FBF7C6FE8D
:104E70000146744800F0C8FBE9E72046FBF7BEFE98
:104E80000146714800F0C0FBE1E79DF80E509DF827
:104E90000F309DF81040240444EA03649DF811305B
:104EA00044EA03249DF812301C436B1E032B07D8E1
:104EB000DFE803F0020C1116A1B2614800F0A2FB7A
:104EC000224629466148FFF7F3FED2E0A1B25D48D1
:104ED00000F098FBF4E7A1B25B4800F093FBEFE72A
:104EE000A1B25B4800F08EFBEAE79DF80E1059482E
:104EF000FFF7DEFEBDE00023009322460421564862
:104F00000068FFF721F94E4B1C644F4B1B6C4D4A58
:104F1000126C4B49096C5148FFF7CAFEA9E0002307
:104F20000093224604214E480068FFF70DF9454BD7
:104F30001C64EAE7002300932246042149480068E4
:104F4000FFF702F9404B1C64DFE7022B19D0032B5B
:104F50002DD0012BD9D15DB13F4B1C68FEF7CCFCA5
:104F600002460023009302212046FFF7EDF8CCE72C
:104F7000002200921346032137480068FFF7E4F847
:104F8000C3E75DB1364B1C68FEF7B6FC0246002352
:104F9000009302212046FFF7D7F8B6E700220092DF
:104FA000134603212E480068FFF7CEF8ADE75DB148
:104FB0002C4B1C68FEF7A0FC024600230093022144
:104FC0002046FFF7C1F8A0E7002200921346032114
:104FD00024480068FFF7B8F897E7022B0ED0032BA0
:104FE00017D0012B91D1002300932A4604211A489F
:104FF0000068FFF7A9F8124B1D6486E700230093B1
:105000002A46042116480068FFF79EF80D4B1D64E0
:105010007BE7002300932A46042112480068FFF72B
:1050200093F8094B1D6470E70F48FFF741FE20E03D
:10503000B8340020AC930008C4930008DC93000847
:105040008C330020D033002014340020F493000867
:105050005834002010940008A83400201C94000844
:10506000AC340020B0340020309400083348FFF7FF
:105070001FFE334B00221A70FFF72EFE1420FEF79E
:1050800049FD2F4B1B78002BF8D003A92D48FFF7C3
:1050900063FE03A8FFF774FE9DF80C30552BE5D195
:1050A0009DF81430AA2BE1D1264B93F801E09C78AF
:1050B00093F803C018795A7999794EEA04034CEAB7
:1050C00003030343134319439DF813208A42ABD1D2
:1050D0009DF80D30012B3FF48AAE022B3FF4A1AEB8
:1050E000032B3FF4D2AE042B3FF4FFAE052BC0D10F
:1050F0009DF80E209DF80F009DF810301C0444EA26
:1051000000649DF8115044EA05249DF812100C43E8
:1051100043EA00231BB241EA0525013A042A3FF67F
:10512000F4AE01A151F822F0F74E00081F4F00081D
:10513000354F00084B4F0008DB4F0008689400080B
:10514000723300206833002010B5044601604260CD
:105150008360029BC3600023036143618361039BFF
:10516000C361049B0362FEF7C7FB606210BD2DE9BB
:10517000F04704460E46FEF7BFFB0546606A281A54
:10518000FBF738FD07460021FBF720FF002842D13E
:105190003146E068FBF77CFC064601463846FBF7E3
:1051A00081FD2169FBF776FC80462061D4F82090D0
:1051B0004946FBF733FF00282FD0C4F810906169EF
:1051C0003046FBF765FC3946FBF720FE804631464A
:1051D0002068FBF767FD074621696068FBF762FD01
:1051E00001463846FBF756FC07464146A068FBF7E8
:1051F00059FD01463846FBF74DFC0746A0610146C4
:105200004846FBF7EDFE98B1C4F8189066616562F8
:10521000A069BDE8F087A069FBE7D4F81CA051465F
:105220004046FBF7DDFE0028C9D0C4F810A0C6E751
:10523000D4F81C8041463846FBF7D2FE0028E5D062
:10524000C4F81880E2E7000070B504460E4621F06D
:105250000040FBF713FF85B2B5F57A7F01D340F22A
:10526000E735631E032B72D8DFE803F00225485CA4
:1052700000213046FBF7D2FE70B1464C01220821D6
:105280002046FCF79AFB002210212046FCF795FBF4
:10529000414B1B685D635AE03E4C002208212046CA
:1052A000FCF78BFB012210212046FCF786FB3A4BD2
:1052B0001B685D634BE000213046FBF7AFFE70B129
:1052C000344C012220212046FCF777FB00224021AC
:1052D0002046FCF772FB304B1B689D6337E02D4C7A
:1052E000002220212046FCF768FB012240212046B5
:1052F000FCF763FB284B1B689D6328E000213046C8
:10530000FBF78CFE20B3234C012280212046FCF7C2
:1053100054FB00224FF480712046FCF74EFB1E4BDD
:105320001B68DD6300213046FBF778FE00B31B4CA1
:1053300001224FF400512046FCF73FFB00224FF4BE
:1053400080412046FCF739FB134B1B681D6470BD80
:10535000104C002280212046FCF72FFB01224FF445
:1053600080712046FCF729FB0B4B1B68DD63D9E7F6
:105370000A4C00224FF400512046FCF71EFB01228C
:105380004FF480412046FCF718FB034B1B681D645B
:10539000DDE700BF000C01404C350020001001404B
:1053A00010B5002421460120FFF74EFF21460220C0
:1053B000FFF74AFF21460320FFF746FF064C002176
:1053C0002046FCF795FE04212046FCF791FE0821BB
:1053D0002046FCF78DFE10BD4C35002008B5013885
:1053E000032807D8DFE800F002070C110021094864
:1053F000FCF7ECFE08BD04210648FCF7E7FEF9E7E0
:1054000008210448FCF7E2FEF4E70C210148FCF710
:10541000DDFEEFE74C35002008B50138032807D83A
:10542000DFE800F002070C1100210948FCF760FEDC
:1054300008BD04210648FCF75BFEF9E70821044893
:10544000FCF756FEF4E70C210148FCF751FEEFE7AC
:105450004C35002038B5284D10212846FCF7A6FA17
:10546000264CA07020212846FCF7A0FA60714FF46A
:1054700000412348FCF79AFA207200230DE003EB69
:1054800043001E4901448978F9B103EB43021B49EB
:105490000A44022151700133DBB2022B2BD803EBFB
:1054A00043001649014449780129E8D0022913D064
:1054B0000029F0D11149014489780029EBD0024636
:1054C0000E490A4401215170E5E703EB43020B4901
:1054D0000A4400215170DEE703EB43000749014411
:1054E00089780029D7D105490246081801248C542F
:1054F00000224270CFE738BD000801408033002011
:105500000010014038B53B4A13780133DBB2137009
:105510000A2B13D0384D2868FBF770FB0446E8606F
:105520000021286AFBF752FD002851D000210120FC
:10553000FFF78AFE304B00221A6038BD1346002266
:105540001A702E4D2868FBF759FB0446E8600021CD
:10555000286AFBF73BFDC8B100210220FFF774FE6B
:10556000264B00221A60264D2868FBF747FB0446AD
:10557000E8600021286AFBF729FDC0B10021032063
:10558000FFF762FE1E4B00221A60C3E71B4D214647
:1055900005F11400FFF7EBFDFBF74AFD6B681844BB
:1055A000FBF72CFB01460220FFF74EFED8E7144D17
:1055B000214605F11400FFF7DAFDFBF739FD6B68B2
:1055C0001844FBF71BFB01460320FFF73DFED9E71C
:1055D000094D214605F11400FFF7C9FDFBF728FD31
:1055E0006B681844FBF70AFB01460120FFF72CFE0D
:1055F000A0E700BFB43400208C330020D03300205B
:10560000143400204160704738B504460D4600212F
:105610002846FBF7E5FC18B9A3686360256238BD2E
:10562000A3685B426360F9E72DE9F04F8BB0FFF7A9
:10563000B7FEAC4D4FF4FA73AB60AB4F4FF416733B
:10564000BB60AA4E4FF4AF73B3604FF4FA622A64A2
:105650003A643264DFF898820024009423460421DF
:10566000D8F80000FEF770FD009423462A6C042150
:10567000D8F80000FEF768FD009423462A6C042148
:10568000D8F80000FEF760FDAB686B60BB687B601C
:10569000B3687360974BD3F80080FEF72DF902468C
:1056A0000094234601214046FEF74EFD924BD3F86D
:1056B0000080FEF721F9024600942346012140466E
:1056C000FEF742FD8D48FFF7F3FADFF83482DFF88A
:1056D00034B2CDF808B0DFF830A2CDF804A04FF016
:1056E0000009CDF800904346884A4FF07E5105F1FD
:1056F0001400FFF729FD4FF07C55CDF808B0CDF828
:1057000004A0CDF8009043462A464FF07E5107F1A1
:105710001400FFF719FDCDF808B0CDF804A0CDF8BE
:10572000009043462A464FF07E5106F11400FFF7E1
:105730000BFD35E16B4C266AD4F82C90D4F80CA004
:10574000A169606AFBF7AEFA05466169A06AFBF7DA
:10575000A9FA80463046FAF767FE06460F464046ED
:10576000FAF762FECDE908012846FAF75DFECDE9B9
:105770000601636804935046FAF756FECDE902012C
:105780004846FAF751FECDE9000132463B466048F3
:10579000FFF78EFA544C266AD4F82C90D4F80CA05B
:1057A000A169606AFBF77EFA05466169A06AFBF7AA
:1057B00079FA80463046FAF737FE06460F464046ED
:1057C000FAF732FECDE908012846FAF72DFECDE9B9
:1057D0000601636804935046FAF726FECDE90201FC
:1057E0004846FAF721FECDE9000132463B464948DA
:1057F000FFF75EFA3D4C266AD4F82C90D4F80CA042
:10580000A169606AFBF74EFA05466169A06AFBF779
:1058100049FA80463046FAF707FE06460F464046EC
:10582000FAF702FECDE908012846FAF7FDFDCDE9B9
:105830000601636804935046FAF7F6FDCDE90201CC
:105840004846FAF7F1FDCDE9000132463B463248C1
:10585000FFF72EFA0024A8E02248016A41F0004137
:10586000FFF7D2FE4FF4FA70FEF754F90120FFF76C
:10587000B5FD1F4B1E68FEF73FF802460025009558
:105880002B4602213046FEF75FFC244B1D7091E051
:105890000120FFF7A3FD1448016A41F00041FFF722
:1058A000B3FE4FF4FA70FEF735F90220FFF796FDCC
:1058B0000F4B1E68FEF720F80246002500952B4688
:1058C00002213046FEF740FC154B1E68FEF714F827
:1058D000024600952B4602213046FEF735FC0F4B61
:1058E000DD706CE08C330020D033002014340020B5
:1058F000A83400207C330020743300209C940008DE
:10590000CDCC4C3D00C0794400C079C4CDCCCC3D59
:10591000A8940008DC94000810950008803300204B
:10592000AC3400200120FFF759FD0220FFF756FD9F
:105930002548016A41F00041FFF766FE4FF4FA7016
:10594000FEF7E8F80320FFF749FD4FF4FA60FEF791
:10595000E1F81E4B1E68FDF7CFFF024600250095BB
:105960002B4602213046FEF7EFFB194B1E68FDF770
:10597000C3FF024600952B4602213046FEF7E4FBAA
:10598000144B1E68FDF7B8FF024600952B46022116
:105990003046FEF7D9FB104B9D711420FEF7BAF884
:1059A0000134E4B20A2C3FF4C5AE0B4B1B78002B3C
:1059B0007FF452AF084BDB78002B7FF469AF064BC6
:1059C0009B79002BAED1E8E714340020A8340020E6
:1059D000AC340020B03400208033002008B5002211
:1059E00011460C4B1868FDF7AFFC012803D00A489C
:1059F000FFF75EF908BDFFF70FFD0848016A21F0C7
:105A00000041FFF701FE0021024B1868FDF7C1FAC3
:105A1000F0E700BF9C340020449500088C33002040
:105A200008B5002211460C4B5868FDF78DFC012883
:105A300003D00A48FFF73CF908BD0220FFF7ECFC51
:105A40000748016A21F00041FFF7DEFD0021024B0B
:105A50005868FDF79EFAEFE79C3400205C9500083B
:105A6000D033002008B5002211460C4B9868FDF792
:105A70006BFC012803D00A48FFF71AF908BD032080
:105A8000FFF7CAFC0748016A21F00041FFF7BCFD9F
:105A90000021024B9868FDF77CFAEFE79C34002068
:105AA000749500081434002008B5B0F5006F09D0D3
:105AB000B0F5805F1BD0B0F5004F2DD0B0F5807FE2
:105AC0003FD008BD4FF480612848FBF76FFF0128E5
:105AD00006D0274B1A68013A1A6000221A74F0E7C0
